S01700004763634170706C69636174696F6E312E737265635B
S11300008FC20000BEC20000BCC20000BAC2000021
S1130010B8C20000B6C20000B4C20000B2C2000000
S1130020B0C20000AEC20000ACC20000AAC2000010
S1130030A8C20000A6C20000A4C20000A2C2000020
S1130040A0C200009EC200009CC200009AC2000030
S113005098C2000096C2000094C200000C94FE13E3
S113006090C200000C94F1110C9427128AC2000073
S113007088C2000086C2000084C2000082C2000060
S113008080C200007EC200007CC200007AC2000070
S113009078C2000076C2000074C200000C94D71A23
S11300A070C200006EC200006CC200006AC2000090
S11300B068C2000066C2000064C2000062C20000A0
S11300C060C200005EC200005CC200005AC20000B0
S11300D058C2000056C2000054C2000052C20000C0
S11300E050C200003505350535053505350535059E
S11300F035053505350535056A056A056A056A0558
S11301006A056A056A0555056A056A056A056A0588
S11301106A056A056A056A056A056A055C05630578
S11301206A056A0547056A054E056A056A056A0592
S11301306A056A056A056A056A056A056A056A0543
S11301406A056A056A053F056A05450543054105D3
S11301506A056A056A056A056A056A053D056A0550
S11301606A056A056A056A056A053B053905851548
S1130170881577157B158115BF158C159015961567
S11301809A159E15A415A815AC15BF15B215B6156C
S1130190BA1541202D205072696E74204D65616E30
S11301A0204163637320286F6E2F6F666629200ACF
S11301B04C202D205072696E74204C6F6F70204D4E
S11301C0696C6C697320286F6E2F6F6666290A4DFF
S11301D0202D2053656E64204D69646920286F6E5C
S11301E02F6F6666290050202D205072696E74208E
S11301F0626561747320286F6E2F6F6666290A52D8
S1130200202D205265636F726420626561747320CF
S1130210286F6E2F6F66662900302E2E39202D2010
S113022053657473205175616E74697A6174696F72
S11302306E20286D61782068616C6620717561722A
S113024074657273290065202D205072696E7420C4
S1130250616E64204572617365204D6178206C6F16
S11302606F700A64202D2044656C657465205461A8
S113027070730A63202D20436C65617220416C6C9D
S11302800A000A74202D205072696E742054696D1E
S1130290696E670A73202D205072696E742053743E
S11302A06174730A6C202D204C697374205461703E
S11302B0730A61202D205072696E74204C6F676739
S11302C065642041636373004C6973743A000A7473
S11302D06170436F756E7465723A2000203A200095
S11302E05175616E74697A6174696F6E3A20002089
S11302F03A2000436F6D706173733A20000A62659F
S113030061744C656E6774683A20006F6666006FAE
S11303106E005072696E74204C6F6F70204D696C62
S11303206C69733A20006F6666006F6E00507269E4
S11303306E74204D65616E20416363733A20006FD3
S11303406666006F6E005072696E74204265617457
S113035073202020203A20006F6666006F6E0053E1
S1130360656E64204D6964692020202020203A2095
S1130370006F6666006F6E000A5265636F7264698F
S11303806E672042656174732020203A20004D611D
S113039078204C6F6F7020286D73293A200009690A
S11303A0647809707472094163635809416363593D
S11303B0094163635A007265632070726520747228
S11303C06967676572206964783A20007265632002
S11303D07072652074726967676572207074723A0E
S11303E020007072652074726967676572206964A1
S11303F0783A200074726967676572207074723A83
S11304002000707265207472696767657220707469
S1130410723A200000000A0B02090C0D0E080703B3
S113042004010000000000000000000000000000C3
S113043000000000000000000000000000000000B8
S11304401211100000000000000000000000000075
S1130450000000000000000000000102102020083D
S1130460081020401020408002010201080402010B
S1130470010204081020408080402010080402017A
S113048080040201804020100804020108040201D3
S1130490010204081020408001020408102040805A
S11304A005050505070508080808020202020A0AEC
S11304B0080804040404010101010101010103030A
S11304C0030303030303040707070C0C0C0C0C0CB5
S11304D00C0C0202020206060606060606060B0BB2
S11304E00B0B0B0B0B0B00002200250028002B002C
S11304F02E003100340002010000050108010B0147
S113050000002100240027002A002D0030003300C1
S113051001010000040107010A01FF035912F8193F
S113052011241FBECFEFD1E2DEBFCDBF00E00CBF70
S113053012E0A0E0B2E0E8E3F9E300E00BBF02C0A0
S113054007900D92AC3BB107D9F729E0ACEBB2E0D0
S113055001C01D92A03AB207E1F712E0C0E9D2E06F
S113056000E006C021970109802FFE010E94651C4E
S1130570CD38D10780E00807A9F70E9487120C94B0
S11305809A1C3ECD84EC98E00E94C31926E040E812
S113059054E86EE170E08EE198E00E948C1160E511
S11305A072E08EE198E00E941C138DE194E00E94B9
S11305B0F2166EE677EF8DE194E00E94241761EB6A
S11305C078EF8DE194E00E94291764E673E08DE1F1
S11305D094E00E942E176CE470E08DE194E00E9498
S11305E033176AEF7FEF8DE194E00E94381765E2DC
S11305F070E08DE194E00E943D1763E08DE194E0AA
S11306000E9477166CE672E08EE198E00E941C135B
S11306108DE194E00E941D17811103C066E372E02E
S113062002C067E172E08EE198E00C941C13089517
S1130630CF92DF92EF92FF920F931F93CF93DF93AA
S11306408CEA93E00E94A80C87E493E00E94A80C33
S113065082EE92E00E94A80C66D2E0D01AD392DF18
S1130660C2E3D0E00F2EF1E1CF2EF4E0DF2EF02D27
S11306700F2EF3E1EF2EF4E0FF2EF02D05E114E050
S113068027E134E049E154E06BE174E08DE194E06A
S11306900E94811660911B0470911C048CEA93E003
S11306A00E94D60C6091190470911A0487E493E0B7
S11306B00E94D60C609117047091180482EE92E0A7
S11306C00E94D60C219771F6FED6DF91CF911F912F
S11306D00F91FF90EF90DF90CF900895CF92DF922B
S11306E0EF92FF920F931F930F2EF1E1CF2EF4E0C0
S11306F0DF2EF02D0F2EF3E1EF2EF4E0FF2EF02D80
S113070005E114E027E134E049E154E06BE174E0F1
S11307108DE194E00E94811660911B0470911C0489
S11307208CEA93E00E94D60C6091190470911A042B
S113073087E493E00E94D60C60911704709118042A
S113074082EE92E00E94D60C0F2EFCECCF2EF2E04B
S1130750DF2EF02D0F2EFCEBEF2EF2E0FF2EF02D0E
S11307600EEB12E020EC32E042EE52E067E473E07C
S11307708CEA93E00E942C0ECAD6E8D40E94B314EB
S11307800091DE021091DF022091E0023091E1023B
S1130790DC01CB01801B910BA20BB30B8093DA021B
S11307A09093DB02A093DC02B093DD020091D602A9
S11307B01091D7022091D8023091D9020817190755
S11307C02A073B0710F48C019D010093D602109375
S11307D0D7022093D8023093D9020E94B3146093B5
S11307E0DE027093DF028093E0029093E10224D151
S11307F01F910F91FF90EF90DF90CF9008958DE1BE
S113080094E00E9469160E94BF146093CE02709314
S1130810CF028093D0029093D102089581E0809317
S11308202E0410922D0410922C0408956EE873E0A7
S11308308EE198E00E94D0124091D6025091D702E6
S11308406091D8027091D9022AE030E08EE198E0FC
S11308500E9493130E94B3146093DE027093DF022C
S11308608093E0029093E1021092D6021092D70294
S11308701092D8021092D902089529D468E773E03F
S11308808EE198E00E94D0128091E105811103C0AD
S113089061E773E002C065E773E08EE198E00E94CF
S11308A00C136FE573E08EE198E00E94D012809102
S11308B00C02811103C068E573E002C06CE573E0CB
S11308C08EE198E00E940C1366E473E08EE198E0F8
S11308D00E94D01280912E04811103C06FE373E053
S11308E002C063E473E08EE198E00E940C136DE2B1
S11308F073E08EE198E00E94D01280912D04811162
S113090003C066E273E002C06AE273E08EE198E03D
S11309100E940C1362E173E08EE198E00E94D01211
S113092080912C04811103C06BE073E002C06FE07E
S113093073E08EE198E00E940C13D5D377CF08952D
S1130940CF93DF93C4D36DEF72E08EE198E00E9401
S1130950D012A1D74AE050E0BC018EE198E00E9499
S1130960EE1363EF72E08EE198E00E94D01298D704
S11309704AE050E0BC018EE198E00E94E8136FEE7B
S113098072E08EE198E00E94D01285D7EC0188D7FE
S1130990C89FB001C99F700DD89F700D11244AE003
S11309A050E08EE198E00E94EE1360EE72E08EE17A
S11309B098E00E94D012C2D34AE050E0682F8EE142
S11309C098E00E948D136CED72E08EE198E00E9435
S11309D0D012B7D34AE050E0BC018EE198E00E9407
S11309E0EE1381D323DFDF91CF910895CF93DF936B
S11309F06ED36EEC72E08EE198E00E94D01255D76F
S1130A004AE050E0BC018EE198E00E94EE1368ECED
S1130A1072E08EE198E00E940C13C0E0D0E045D76C
S1130A20C817D90724F4CE0145D72196F8CF5BD354
S1130A30FDDEDF91CF9108958EE198E00E94991038
S1130A40892B09F467C08EE198E00E94B3109C01E1
S1130A50FC01FF27F097E534F10508F03BC0882737
S1130A60EE58FF4F8F4F0C94651C80ED820F47D3D7
S1130A7051C066DF4FC001DF4DC0B8DF4BC078D135
S1130A8049C0D4DE47C0F4D645C01DD543C09091BB
S1130A902E0481E0892780932E043CC09091E105C7
S1130AA081E089278093E10535C090912D0481E090
S1130AB0892780932D042EC090912C0481E08927EE
S1130AC080932C0427C090910C0281E089278093A5
S1130AD00C0220C0FCD262E872E08EE198E00E9431
S1130AE00C1366E472E08EE198E00E940C1369E155
S1130AF072E08EE198E00E940C1366EE71E08EE1E4
S1130B0098E00E940C1362E971E08EE198E00E9483
S1130B100C13E9D280912D048111EFD080912C0423
S1130B20811184CE0895EF92FF920F931F93CF9378
S1130B30DF93C0E0D2E00F2EFCE0EF2EF2E0FF2EB8
S1130B40F02D8E0161E088810E94C015229660E03C
S1130B50F80180810E94FC15CE15DF0591F7DF9125
S1130B60CF911F910F91FF90EF900895CF92DF9254
S1130B70EF92FF920F931F93CF93DF93EC018B01BE
S1130B800E94B3146B017C01FE01EE0FFF1FE050C5
S1130B90FE4F61E080810E94FC15CC0FDD1FCC0F5D
S1130BA0DD1FC15DDB4FC801110FAA0BBB0B8C0D00
S1130BB09D1DAE1DBF1D88839983AA83BB83DF91CE
S1130BC0CF911F910F91FF90EF90DF90CF900895F8
S1130BD08F929F92AF92BF92EF92FF920F931F93C7
S1130BE0CF93DF935C010E94B31400E012E0CFE2E4
S1130BF0D4E00F2EF7E4EF2EF4E0FF2EF02D4501A4
S1130C00BB0CAA08BB08860E971EA81EB91EF801C5
S1130C1080810E5F1F4F61E00E94FC1589929992BA
S1130C20A992B992CE15DF0591F7DF91CF911F916B
S1130C300F91FF90EF90BF90AF909F908F90089589
S1130C40EF92FF920F931F93CF93DF93C0E0D2E014
S1130C500F2EFCE0EF2EF2E0FF2EF02D8E0161E06E
S1130C6088810E94FC1562E370E080E090E00E94BD
S1130C70E414229660E0F80180810E94FC15CE15F0
S1130C80DF0561F7DF91CF911F910F91FF90EF90F6
S1130C900895CF93DF93109254041092530410924A
S1130CA052041092510480E190E090935004809398
S1130CB04F0410924E0410924D0410924C04109262
S1130CC04B0410924A041092490410924804109262
S1130CD04704E5E5F5E0C5EDD4E0A5E5B4E085ED30
S1130CE095E011921192199219921D921D92E81792
S1130CF0F907B9F7DF91CF910895E0914704F09196
S1130D004804EE0FFF1FEB5AFA4F608171814AE0ED
S1130D1050E08EE198E00E94E81369E08EE198E0EB
S1130D200E94F312E0914704F0914804EE0FFF1F74
S1130D30EB52FB4F608171814AE050E08EE198E014
S1130D400E94E81369E08EE198E00E94F312E091BA
S1130D504704F0914804EE0FFF1FEB5AFB4F6081EC
S1130D6071814AE050E08EE198E00C94EE1308950E
S1130D700F931F93CF93DF9362E074E08EE198E0CA
S1130D800E94D01260915104709152044AE050E0E4
S1130D908EE198E00E94EE1364EF73E08EE198E038
S1130DA00E94D01260914F04709150044AE050E0C8
S1130DB08EE198E00E94EE1362EE73E08EE198E01B
S1130DC00E94D01260914D0470914E044AE050E0AC
S1130DD08EE198E00E94EE136CEC73E08EE198E0F3
S1130DE00E94D01260914B0470914C044AE050E090
S1130DF08EE198E00E94EE1366EB73E08EE198E0DA
S1130E000E94D0126091490470914A044AE050E073
S1130E108EE198E00E94EE136EE973E08EE198E0B3
S1130E200E940C1300E010E0C0914904D0914A04E0
S1130E30C00FD11FCF70DD2780914B0490914C04DB
S1130E40C80FD91FCF73DD2769E08EE198E00E94B7
S1130E50F3124AE050E0B8018EE198E00E94E813F2
S1130E6069E08EE198E00E94F3124AE050E0BE018E
S1130E708EE198E00E94E81369E08EE198E00E9418
S1130E80F312CC0FDD1FFE01EB5AFA4F6081718122
S1130E904AE050E08EE198E00E94E81369E08EE1B8
S1130EA098E00E94F312FE01EB52FB4F60817181C6
S1130EB04AE050E08EE198E00E94E81369E08EE198
S1130EC098E00E94F312CB5ADB4F688179814AE0A3
S1130ED050E08EE198E00E94EE130F5F1F4F003147
S1130EE0110509F0A1CF00E010E0C0914F04D091AA
S1130EF05004C00FD11FCF73DD2769E08EE198E065
S1130F000E94F312B801605F7F4F4AE050E08EE127
S1130F1098E00E94E81369E08EE198E00E94F312E1
S1130F204AE050E0BE018EE198E00E94E81369E0D7
S1130F308EE198E00E94F312CC0FDD1FFE01EB5A04
S1130F40FA4F608171814AE050E08EE198E00E949E
S1130F50E81369E08EE198E00E94F312FE01EB527F
S1130F60FB4F608171814AE050E08EE198E00E947D
S1130F70E81369E08EE198E00E94F312CB5ADB4F4C
S1130F80688179814AE050E08EE198E00E94EE1396
S1130F900F5F1F4F0032110509F0A7CFDF91CF91EA
S1130FA01F910F910895FC016083118213821282B4
S1130FB00895CF93DF93FC01818190E0DC01AA0FB7
S1130FC0BB1FAE0FBF1F22813381260F371F14961C
S1130FD04D915C911597241B350B33832283159611
S1130FE07C936E931497C081D0E00196BE010E9459
S1130FF0141C8183C901BE010E94141CCB01DF9122
S1131000CF9108958F929F92AF92BF92CF92DF9229
S1131010EF92FF920F931F93CF93DF9320910C02D3
S1131020222309F447C0992E882E072E000C880B22
S1131030990B1F921F921F922FE72F93A12CB12C73
S1131040650114EFE12EFF24F39400E010E028EC96
S113105030E040E050E00E942A16162FC82DD92D0A
S11310600F900F900F900F90C038D10514F0CFE778
S1131070D0E0E0911E08F0911F080190F081E02D6E
S113108069E98EE198E01995BE01DD2314F460E06E
S113109070E0CEE1D8E0E881F9810190F081E02DA3
S11310A0CE011995E881F9810190F081E02D612F3D
S11310B0CE011995DF91CF911F910F91FF90EF9081
S11310C0DF90CF90BF90AF909F908F900895E09164
S11310D01E08F0911F080190F081E02D60EF8EE171
S11310E098E019950895E0911E08F0911F08019069
S11310F0F081E02D67EF8EE198E0199508958093D3
S1131100DE051092DD051092DC051092D5058823CA
S113111061F0682F70E080917006909171060E94D2
S1131120141C7093DD056093DC05E6EDF5E0108298
S11311301182128213821482158208958091DE0531
S113114008958091DC059091DD050895CF92DF929A
S1131150EF92FF920F931F93CF93DF938091E0055B
S11311608111A8C10E94B3146B017C018091E60532
S11311709091E705A091E805B091E905C816D90654
S1131180EA06FB0608F45AC04091700650917106B5
S1131190052E000C660B770B840F951FA61FB71F37
S11311A08093E6059093E705A093E805B093E905DD
S11311B080916C0690916D06092E000CAA0BBB0B56
S11311C04091E2055091E3056091E4057091E505D5
S11311D0840F951FA61FB71F8093E2059093E30524
S11311E0A093E405B093E5058091130264E670E0F2
S11311F090E008DF60916C0670916D0675956795B7
S11312007595679584E090E0B1DC8091B406909187
S1131210B506181619060CF072C0EBEBF6E09C014B
S1131220220F331F820F931F880F991F8554994FE4
S1131230108236968E179F07D9F761C08091E20518
S11312409091E305A091E405B091E505C816D9068F
S1131250EA06FB0658F140916C0650916D06052E86
S1131260000C660B770B840F951FA61FB71F809386
S1131270E2059093E305A093E405B093E50580911E
S1131280140260E470E090E0BDDE60916C06709141
S11312906D067595679575956795759567957595BB
S11312A067957595679584E090E060DC8091DE0534
S11312B0882329F18091DC059091DD05959587952A
S11312C0092E000CAA0BBB0B4091E6055091E705D3
S11312D06091E8057091E9058A019B01081B190BCF
S11312E02A0B3B0B0C151D052E053F0540F4E6EDBE
S11312F0F5E0108211821282138214821582809189
S11313007006909171062091E6053091E705821BE5
S1131310930BC80ED91ED0926F06C0926E068091B0
S1131320DE05811109C08091B4069091B5061816A6
S113133019060CF489C0BEC06091DC057091DD050E
S11313409B0135952795C601820F931F0E94141C9B
S1131350821B930B5AF41092D505E6EDF5E010824A
S113136011821282138214821582A4C08091D50541
S11313708111A0C08091B4069091B5061816190683
S11313800CF05EC0C6EBD6E000E010E0DD24D394A0
S11313907E01EA81F0E0EA52FA4F8081811144C073
S11313A02881398160916E0670916F068091DC0509
S11313B09091DD0595958795AB01481B590B241732
S11313C035072CF0860F971F281739074CF08091AA
S11313D0700690917106281B390B241735072CF1E0
S11313E0D70114966C91149770E013968C9190E049
S11313F009DEF701648170E07595679575956795C9
S1131400759567957595679575956795828190E053
S1131410ADDBD7011296EC911297F0E0EA52FA4F45
S1131420D0821596DC9201C0DD820F5F1F4F269695
S11314308091B4069091B506081719070CF4A8CF4B
S113144081E08093D50536C0C6EBD6E0E12CF12CC3
S1131450DD24D3948881998120916E0630916F06A2
S1131460821B930B09964397C8F48D81811117C091
S11314706C8170E08B8190E0C5DD6C8170E07595C6
S11314806795759567957595679575956795759540
S113149067958A8190E06ADBDD8201C01D82BFEF1F
S11314A0EB1AFB0A26968091B4069091B506E816CD
S11314B0F90684F2DF91CF911F910F91FF90EF9085
S11314C0DF90CF900895B5D1D3D1BADBB9DB81E0F9
S11314D08093E1058093DF051092DA021092DB021B
S11314E01092DC021092DD020E94B3146093DE02BB
S11314F07093DF028093E0029093E1021092D6028F
S11315001092D7021092D8021092D90208958F92A5
S11315109F92AF92BF92CF92DF92EF92FF920F937E
S11315201F93CF93DF938091E005882309F406C1CC
S11315308091E105882309F401C18091BC02909156
S1131540BD02019609F483C08091DF05811109C0B1
S11315508091EA059091EB0501969093EB058093B9
S1131560EA05C091EA05D091EB050E94B314CC0FB3
S1131570DD1FCC0FDD1FC451DA4F688379838A8362
S11315809B83209172063091730612161306CCF4D5
S1131590E091EA05F091EB05EE0FFF1FEE0FFF1F40
S11315A0E451FA4F808191814091EC055091ED0511
S11315B0841B950BB9010E94141C70936D066093F3
S11315C06C062F5F3F4F3093730620937206809111
S11315D06C0690916D06289FA001299F500D389F9D
S11315E0500D11245093710640937006E091EA0562
S11315F0F091EB05EE0FFF1FEE0FFF1FE451FA4FC2
S1131600092E000CAA0BBB0B0081118122813381AE
S1131610800F911FA21FB31F052E000C660B770BC2
S1131620840F951FA61FB71F8093E6059093E705C7
S1131630A093E805B093E9058091140260E470E09A
S113164090E0E0DC8AEF90E0C3DA1092DF0580914D
S1131650EA059091EB0502970CF4DEC00E94B314E6
S11316604B015C01E091EA05F091EB05EE0FFF1FE1
S1131670EE0FFF1FE451FA4F80819181A281B38163
S113168088169906AA06BB06B9F00E94B314E09125
S1131690EA05F091EB05EE0FFF1FEE0FFF1FE4517B
S11316A0FA4F00811181228133814B015C01801A40
S11316B0910AA20AB30A06C00E94B314861A970AB2
S11316C0A80AB90AC0916C06D0916D06BE010D2E10
S11316D0000C880B990B1AD420E030E040EC5FE357
S11316E09DD4E1D3CB01770FAA0BBB0B88159905C9
S11316F0AA05BB0508F090C01092E005CE01DD0FED
S1131700AA0BBB0B4091E2055091E3056091E405FF
S11317107091E505840F951FA61FB71F8093E205FE
S11317209093E305A093E405B093E50507DDE7DCBA
S11317306AE872E08EE198E07FD76EC08091BC02C7
S11317409091BD028F3F2FEF920709F465C062E3C9
S113175070E00CDAC091B406D091B5068091BC0259
S11317609091BD024E01880C991CF401EC0FFD1FF1
S1131770EE0FFF1FEA54F94F82839927DC01A35F20
S1131780BD4F8C91838380916E0690916F069183F7
S113179080836091BE027091BF02072E000C880BFB
S11317A0990B1F921F921F922FE72F93A12CB12CFC
S11317B0650114EFE12EFF24F39400E010E028EC1F
S11317C030E040E050E00E942A16C80DD91DCC0F2D
S11317D0DD1FCA54D94F6C830F900F900F900F9058
S11317E080912E04882329F08091B4069091B50647
S11317F061D08091E105882349F08091B4069091ED
S1131800B50601969093B5068093B4068FEF9FEFCB
S11318109093BD028093BC02DF91CF911F910F91F1
S1131820FF90EF90DF90CF90BF90AF909F908F90FC
S11318300895ECEEF5E0A4E7B6E08CE696E01192AC
S11318401192119211921D921D92E817F907B9F79E
S113185081E08093E0051092730610927206109254
S11318606D0610926C061092EB051092EA0508952D
S11318701092B5061092B406E6EBF6E08EE198E01D
S11318801182108212821382148215823696E8170E
S1131890F907B1F7089580916C0690916D0608954B
S11318A0809172069091730608958091B406909188
S11318B0B5060895EF92FF920F931F93CF93DF9392
S11318C0EC014AE050E0BC018EE198E081D760E28F
S11318D08EE198E088D67E01EE0CFF1C87010C0F88
S11318E01D1F000F111F0A54194FF80160817181E7
S11318F04AE050E08EE198E06BD760E28EE198E038
S113190072D6F801628170E04AE050E08EE198E01E
S11319105FD760E28EE198E066D6F801638170E0FB
S11319204AE050E08EE198E053D760E28EE198E01F
S11319305AD6E8016C8170E04AE050E08EE198E00C
S11319404DD7DF91CF911F910F91FF90EF900895A4
S1131950FC01118210821382128215821482178272
S113196016821186108613861286138A128A1586A9
S1131970148684E690E0918F808F118A108A1786EE
S11319801686958B848B978B868BDF01AF59BF4F5F
S11319901D921D921D921C921397119781E08C93B6
S11319A060E270E0CF014A96FECA08950F931F9338
S11319B0CF93DF93EC01062E672F000C661F770B85
S11319C0000C661F771F7B836A834A96F2DAFE0156
S11319D0E25AFF4F918380838C819D819F838E8304
S11319E0888599859B878A87BED7FE01EF59FF4F6B
S11319F000811181228133810617170728073907CF
S1131A0018F481E0319780838A819B812881398110
S1131A10AC01421B530B9A012C393F4FCCF5FE010C
S1131A20E25AFF4F20813181A901485C5109841792
S1131A30950774F532964081442351F1821B930B30
S1131A409C0122F422273327281B390B3987288746
S1131A50FE01E05AFF4F108286D7FE01EF59FF4F77
S1131A60DC01CB01C296A11DB11D80839183A283A9
S1131A70B38379D7DC01CB014496A11DB11D8093BA
S1131A80D2029093D302A093D402B093D50202C0A1
S1131A90198618868A819B8128813981AC01421B71
S1131AA0530B45365105CCF1FE01E25AFF4F20811C
S1131AB03181A90148535F4F4817590774F532968D
S1131AC04081442351F1821B930B9C0122F4222771
S1131AD03327281B390B3D832C83FE01E05AFF4F2B
S1131AE0108241D7FE01EF59FF4FDC01CB01C296B2
S1131AF0A11DB11D80839183A283B38334D7DC01FC
S1131B00CB014496A11DB11D8093D2029093D302C0
S1131B10A093D402B093D50202C01D821C82FE01A0
S1131B20E25AFF4F608171812A813B81261B370B6A
S1131B30A90122F444275527421B530B8A899B8908
S1131B4095958795840F951F9B8B8A8B8932910578
S1131B507CF1288D398D21153105F9F4FE01E05A07
S1131B60FF4F20812223B1F09D878C871082FBD602
S1131B70FE01EF59FF4FDC01CB018C509E4FAF4F5C
S1131B80BF4F80839183A283B3831F861E86198AE5
S1131B90188A07C01D861C8604C021503109398F5C
S1131BA0288F84E690E09D8B8C8B9F8B8E8B4BC013
S1131BB04997ACF5623C51E07507BCF48C899D896A
S1131BC0009749F481E090E09F878E87198A188AEC
S1131BD01D861C8603C001979D8B8C8B84E690E048
S1131BE0998F888F9F8B8E8B2EC067327240BCF08A
S1131BF08C899D89009749F481E090E0998B888BCA
S1131C001F861E861D861C8603C001979D8B8C8BA8
S1131C1084E690E0998F888F9F8B8E8B14C084E626
S1131C2090E09D8B8C8B998F888F8E899F890097EC
S1131C3039F41F861E86198A188A1D861C8603C0DD
S1131C4001979F8B8E8B8A819B8199838883DF91F7
S1131C50CF911F910F9108952F923F924F925F92CF
S1131C606F927F928F929F92AF92BF92CF92DF92A8
S1131C70EF92FF920F931F93CF93DF9300D01F92A5
S1131C80CDB7DEB79C838B835B012A0169013801E0
S1131C90470169D60091D2021091D3022091D40257
S1131CA03091D502601771078207930708F056C078
S1131CB0EB81FC81848195811816190644F4F601A0
S1131CC0208131812817390714F491838083EB81B3
S1131CD0FC81808591851816190644F4F601228149
S1131CE033812817390714F493838283F50184819F
S1131CF095811816190644F4F601248135812817B4
S1131D00390714F495838483F50180859185181629
S1131D10190644F4F601268137812817390714F48B
S1131D2097838683F201848195811816190644F4F9
S1131D30F601208531852817390714F491878087A7
S1131D40F201808591851816190644F4F60122855E
S1131D5033852817390714F49387828704D60091B2
S1131D60D2021091D3022091D4023091D5020617E9
S1131D7017072807390708F061C0012B022B032B32
S1131D8009F062C05BC0F801619171918F01072E67
S1131D90000C880B990BBAD0A62EB72EE82EF92E7C
S1131DA0262F372F482F592F632D722D842D952DD3
S1131DB076D0882344F4FB81F9838C818A833A2C7E
S1131DC02B2C4E2C5F2CEB81FC813196FC83EB8316
S1131DD03697C9F61092D2021092D3021092D4020E
S1131DE01092D502632D722D842D952D5CD0F301B4
S1131DF0718360838981F40180839A819183F301E3
S1131E0060817181FFD8F301608171817595679557
S1131E1075956795759567957595679575956795A6
S1131E2089819A810E94B605F6018CE0C80ED11C06
S1131E3011921192EC15FD05D9F71AC08FEF9FEF9F
S1131E40F4019183808314C0F601619171918F0133
S1131E50072E000C880B990B59D0362E272E482EAE
S1131E60592E81E090E09C838B8319821A828BCF58
S1131E700F900F900F900F90DF91CF911F910F91C2
S1131E80FF90EF90DF90CF90BF90AF909F908F9096
S1131E907F906F905F904F903F902F90089571D0F6
S1131EA008F481E0089504D06894B111B1C0089594
S1131EB094D088F09F5790F0B92F9927B751A0F08C
S1131EC0D1F0660F771F881F991F1AF0BA95C9F7CA
S1131ED012C0B13081F09BD0B1E0089598C0672F53
S1131EE0782F8827B85F39F0B93FCCF3869577957A
S1131EF06795B395D9F73EF4909580957095619563
S1131F007F4F8F4F9F4F0895E89409C097FB3EF48D
S1131F1090958095709561957F4F8F4F9F4F992332
S1131F20A9F0F92F96E9BB279395F69587957795B0
S1131F306795B795F111F8CFFAF4BB0F11F460FF70
S1131F401BC06F5F7F4F8F4F9F4F16C0882311F0C8
S1131F5096E911C0772321F09EE8872F762F05C0DC
S1131F60662371F096E8862F70E060E02AF09A9577
S1131F70660F771F881FDAF7880F9695879597F96C
S1131F800895990F0008550FAA0BE0E8FEEF161606
S1131F901706E807F907C0F012161306E407F50759
S1131FA098F0621B730B840B950B39F40A2661F0CD
S1131FB0232B242B252B21F408950A2609F4A14070
S1131FC0A6958FEF811D811D089557FD9058440FEC
S1131FD0551F59F05F3F71F04795880F97FB991F84
S1131FE061F09F3F79F08795089512161306140641
S1131FF0551FF2CF4695F1DF08C0161617061806CE
S1132000991FF1CF86957105610508940895E894A8
S1132010BB2766277727CB0197F908950BD078C0A3
S113202069D028F06ED018F0952309F05AC05FC02B
S11320301124EECFCADFA0F3959FD1F3950F50E0A2
S1132040551F629FF001729FBB27F00DB11D639F66
S1132050AA27F00DB11DAA1F649F6627B00DA11D0C
S1132060661F829F2227B00DA11D621F739FB00DB2
S1132070A11D621F839FA00D611D221F749F332722
S1132080A00D611D231F849F600D211D822F762FBB
S11320906A2F11249F5750408AF0E1F088234AF0B8
S11320A0EE0FFF1FBB1F661F771F881F9150504004
S11320B0A9F79E3F510570F014C0AACF5F3FECF31F
S11320C0983EDCF3869577956795B795F795E795F0
S11320D09F5FC1F7FE2B880F911D9695879597F901
S11320E0089597F99F6780E870E060E008959FEF96
S11320F080EC089500240A9416161706180609069B
S1132100089500240A941216130614060506089569
S1132110092E0394000C11F4882352F0BB0F40F4F1
S1132120BF2B11F460FF04C06F5F7F4F8F4F9F4F31
S11321300895FC01918D228D892F90E0805C9F4F42
S1132140821B91098F7399270895FC01918D828DCB
S1132150981731F0828DE80FF11D858D90E0089578
S11321608FEF9FEF0895FC01918D828D981761F098
S1132170828DDF01A80FB11D5D968C91928D9F5FBA
S11321809F73928F90E008958FEF9FEF089580E5FD
S113219092E1892B39F080E090E0892B19F080D10D
S11321A0811125C080E090E0892B41F080E090E02F
S11321B0892B21F00E94000081111CC080E090E076
S11321C0892B41F080E090E0892B21F00E940000EF
S11321D0811113C080E090E0892BA1F080E090E0B1
S11321E0892B81F00E94000081110AC008950E9489
S11321F00000D8CF0E940000E1CF0E940000EACF87
S11322000C9400000895FC01848DDF01A80FB11D1A
S1132210A35ABF4F2C91848D90E001968F73992718
S1132220848FA689B7892C93A089B1898C91806405
S11322308C93938D848D981306C00288F389E02DC6
S113224080818F7D80830895EF92FF920F931F9377
S1132250CF93DF93EC019B8D8C8D981305C0E88997
S1132260F989808185FD26C0F62E0B8D10E00F5F65
S11322701F4F0F731127E02E8C8DE8120BC00FB681
S113228007FCFACFE889F989808185FFF5CFCE0173
S1132290BADFF2CF8B8DFE01E80FF11DE35AFF4F39
S11322A0F0820B8FEA89FB8980818062808381E0E0
S11322B0888F08C0EE89FF896083E889F989808165
S11322C08064808381E090E0DF91CF911F910F9132
S11322D0FF90EF900895CF93DF93EC01888D8823CE
S11322E0C1F0EA89FB89808185FD05C0A889B98987
S11322F08C9186FD0EC00FB607FCF5CF808185FF5B
S1132300F2CFA889B9898C9185FFEDCFCE017BDF0F
S1132310E8CFDF91CF910895CF92DF92EF92FF92B1
S11323201F93CF93DF93EC016A017B01122FE8899D
S1132330F98982E080834115514E61057105B1F040
S113234060E079E08DE390E0A70196010E94271CEC
S1132350DA01C9010197A109B109B695A795979525
S113236087959C01211580E13807A8F0E889F9894F
S1132370108260E874E88EE190E0A70196010E9463
S1132380271CDA01C9010197A109B109B695A795DE
S1132390979587959C01EC85FD853083EE85FF85B7
S11323A02083188EEC89FD891083EA89FB8980815A
S11323B080618083EA89FB89808188608083EA89DF
S11323C0FB89808180688083EA89FB8980818F7D95
S11323D08083DF91CF911F91FF90EF90DF90CF909A
S11323E008951F920F920FB60F9211240BB60F92FD
S11323F02F938F939F93EF93FF93E0912E08F09187
S11324002F088081E0913408F091350882FD12C0D4
S11324109081809137088F5F8F73209138088217DD
S113242051F0E0913708F0E0E25EF74F958F80932A
S1132430370801C08081FF91EF919F918F912F9177
S11324400F900BBE0F900FBE0F901F9018951F9208
S11324500F920FB60F9211240BB60F922F933F9346
S11324604F935F936F937F938F939F93AF93BF9398
S1132470EF93FF938EE198E0C6DEFF91EF91BF9159
S1132480AF919F918F917F916F915F914F913F9108
S11324902F910F900BBE0F900FBE0F901F901895A9
S11324A08EE198E046DE21E0892B09F420E0822FBA
S11324B00895EEE1F8E01382128288EE93E0A0E042
S11324C0B0E084839583A683B7838FE992E09183F8
S11324D0808385EC90E09587848784EC90E09787EF
S11324E0868780EC90E0918B808B81EC90E0938BDD
S11324F0828B82EC90E0958B848B86EC90E0978BBA
S1132500868B118E128E138E148E0895089581D2A7
S1132510FDDF0E941803C7ECD0E10E946E032097F0
S1132520E1F335DEFACFCF92DF92EF92FF920F9371
S11325301F93CF93DF936C01EB017B01E40EF51E37
S113254000E010E0CE15DF0561F06991D601ED9150
S1132550FC910190F081E02DC6011995080F191F17
S1132560F1CFC801DF91CF911F910F91FF90EF90B0
S1132570DF90CF9008956115710579F0FB0101900A
S11325800020E9F73197AF01461B570BDC01ED91B1
S1132590FC910280F381E02D199480E090E008958D
S11325A0EF92FF920F931F93CF93DF937C01FB0174
S11325B000E010E06491EF012196662361F0D701F9
S11325C0ED91FC910190F081E02DC7011995080F60
S11325D0191FFE01EFCFC801DF91CF911F910F9119
S11325E0FF90EF900895DC01ED91FC910190F08152
S11325F0E02D19940F931F93CF93DF93EC016DE0BB
S1132600F2DF8C016AE0CE01EEDF800F911FDF91D3
S1132610CF911F910F9108950F931F93CF93DF9341
S1132620EC01BEDF8C01CE01E5DF800F911FDF914D
S1132630CF911F910F9108950F931F93CF93DF9321
S1132640EC0199DF8C01CE01D5DF800F911FDF9162
S1132650CF911F910F9108958F929F92AF92BF9245
S1132660CF92DF92EF92FF920F931F93CF93DF935A
S1132670CDB7DEB7A1970FB6F894DEBF0FBECDBFBE
S11326806C01142FE52FCB01022F19A2223008F47C
S11326900AE07E0121E2E20EF11C802E912CA12C95
S11326A0B12C612F7E2FA50194010E94271C029F4B
S11326B01019112481E0E81AF1081A3010F4105DA1
S11326C001C0195CF7011083122FE32FCA01232BD9
S11326D0242B252B31F7B701C6014DDFA1960FB688
S11326E0F894DEBF0FBECDBFDF91CF911F910F9144
S11326F0FF90EF90DF90CF90BF90AF909F908F901E
S113270008952115310541F4DC01ED91FC9101900E
S1132710F081E02D642F19949FCF9A01462F50E049
S113272060E070E0EECF0F931F93CF93DF93EC0143
S1132730E8DF8C01CE015EDF800F911FDF91CF9126
S11327401F910F910895CF92DF92EF92FF920F9312
S11327501F93CF93DF932115310581F4DC01ED91B3
S1132760FC910190F081E02D642FDF91CF911F91B6
S11327700F91FF90EF90DF90CF9019942A3031059C
S1132780F1F477FF1BC06A017B01EC016DE22BDFE2
S11327908C0144275527BA014C195D096E097F093C
S11327A02AE0CE0159DF800F911FDF91CF911F9155
S11327B00F91FF90EF90DF90CF9008952AE0DF9182
S11327C0CF911F910F91FF90EF90DF90CF9044CF66
S11327D09A01AB01770F660B770BB5CF0F931F935D
S11327E0CF93DF93EC01F4DF8C01CE0103DF800F84
S11327F0911FDF91CF911F910F9108951F920F9216
S11328000FB60F9211240BB60F92AF92BF92CF92D4
S1132810DF92EF92FF920F931F932F933F934F9367
S11328205F936F937F938F939F93AF93BF93CF9354
S1132830DF93EF93FF938091BC089091BD08A09122
S1132840BE08B091BF083091BB0823E0230F2D3799
S113285020F40196A11DB11D05C026E8230F0296A0
S1132860A11DB11D2093BB088093BC089093BD08A3
S1132870A093BE08B093BF088091C0089091C1088E
S1132880A091C208B091C3080196A11DB11D809307
S1132890C0089093C108A093C208B093C30898E9F4
S11328A0E92E99E0F92EC0E0D0E0D701ED91FC913A
S11328B03097A1F18E01000F111FC8018457964F64
S11328C06C01DC018D919C9111979C01215031097F
S11328D011963C932E931816190604F1CE018C56CA
S11328E0964F5C01DC018C910C57164F81110EC080
S11328F01995F70111821082D80111961C921E922B
S1132900F60111821082D5011C9208C01995F801B4
S113291080819181D60111969C938E932196B2E089
S1132920EB0EF11CC430D10509F0BFCFFF91EF913C
S1132930DF91CF91BF91AF919F918F917F916F91D3
S11329405F914F913F912F911F910F91FF90EF90C5
S1132950DF90CF90BF90AF900F900BBE0F900FBE43
S11329600F901F9018952FB7F8946091BC08709140
S1132970BD088091BE089091BF082FBF08953FB74E
S1132980F8948091C0089091C108A091C208B091B8
S1132990C30826B5A89B05C02F3F19F00196A11DB9
S11329A0B11D3FBFBA2FA92F982F8827820F911DE1
S11329B0A11DB11DBC01CD0142E0660F771F881F28
S11329C0991F4A95D1F70895CF92DF92EF92FF9223
S11329D0CF93DF936B017C01D2DFEB01C114D104EF
S11329E0E104F10479F007D5CADF6C1B7D0B683E66
S11329F07340A0F381E0C81AD108E108F108C85176
S1132A00DC4FECCFDF91CF91FF90EF90DF90CF9030
S1132A100895789484B5826084BD84B5816084BD52
S1132A2085B5826085BD85B5816085BDEEE6F0E043
S1132A30808181608083E1E8F0E01082808182609F
S1132A408083808181608083E0E8F0E08081816020
S1132A508083E1EBF0E0808184608083E0EBF0E050
S1132A60808181608083E1E9F0E0808182608083FD
S1132A70808181608083E0E9F0E0808181608083EF
S1132A80E1EAF0E0808182608083808181608083DC
S1132A90E0EAF0E0808181608083E1E2F1E080811E
S1132AA082608083808181608083E0E2F1E08081C4
S1132AB081608083EAE7F0E08081846080838081A4
S1132AC0826080838081816080838081806880834C
S1132AD01092C100089590E0FC013197E231F105B4
S1132AE008F04DC08827E954FF4F8F4FEEC6809100
S1132AF080008F7703C0809180008F7D8093800059
S1132B00089580918000877FF9CF84B58F7702C0C4
S1132B1084B58F7D84BD08958091B0008F7703C004
S1132B208091B0008F7D8093B000089580919000D3
S1132B308F7707C0809190008F7D03C080919000B3
S1132B40877F8093900008958091A0008F7707C0BD
S1132B508091A0008F7D03C08091A000877F809327
S1132B60A0000895809120018F7707C080912001F3
S1132B708F7D03C080912001877F80932001089579
S1132B80CF93DF9390E0FC01E65AFB4F2491FC01C4
S1132B90E056FB4F8491882361F190E0880F991FE0
S1132BA0FC01E050FB4FC591D491FC01EA51FB4F6D
S1132BB0A591B491611109C09FB7F89488812095BB
S1132BC082238883EC912E230BC0623061F49FB77B
S1132BD0F8948881322F309583238883EC912E2BAF
S1132BE02C939FBF06C08FB7F894E8812E2B2883BF
S1132BF08FBFDF91CF9108951F93CF93DF93282F39
S1132C0030E0F901EC5EFB4F8491F901E65AFB4F89
S1132C10D491F901E056FB4FC491CC23B9F0162F9F
S1132C20811159DFEC2FF0E0EE0FFF1FEA51FB4F4B
S1132C30A591B4919FB7F894111104C08C91D095CB
S1132C40D82302C0EC91DE2BDC939FBFDF91CF91A0
S1132C501F9108954F925F926F927F92AF92BF92AD
S1132C60CF92DF92EF92FF920F931F93CF93DF9354
S1132C70CDB7DEB729013A019B01AC01241935090E
S1132C80460957098A899B89AC89BD89BC01CD0154
S1132C906A197B098C099D09B8D5A80197012419E3
S1132CA0350946095709F5D5CA01B9016A0D7B1DD5
S1132CB08C1D9D1DDF91CF911F910F91FF90EF907F
S1132CC0DF90CF90BF90AF907F906F905F904F90C8
S1132CD0089528E6FC01208308950F93062F22E02F
S1132CE044E06BE1FC01808170D20F9108950F9351
S1132CF0062F22E044E06CE1FC01808166D20F9152
S1132D0008954F925F926F927F928F929F92AF92AB
S1132D10BF92CF92DF92EF92FF920F931F93CF93C4
S1132D20DF93EC013B014A0159012801009115028E
S1132D30109116029C012F5F3F4F4EE06BE3888198
S1132D4027D189819A81982789279827F30191832C
S1132D5080838B819C81982789279827F40191830C
S1132D6080838D819E81982789279827F5019183F7
S1132D70808389859A85982789279827F2019183EA
S1132D8080838B859C85982789279827F7019183D1
S1132D9080838D859E85982789279827F6019183BE
S1132DA08083DF91CF911F910F91FF90EF90DF907F
S1132DB0CF90BF90AF909F908F907F906F905F90D7
S1132DC04F900895262F46E06BE6FC018081CFC129
S1132DD00F93062F23E042E06BE6FC018081F5D1DE
S1132DE00F910895CF93DF93EC0161E0F1DF60E090
S1132DF0CE0173DF60E0CE017ADF60E0CE01DF91C7
S1132E00CF91E0CFEF92FF920F931F93CF93DF9375
S1132E10EC01E0901502F09016028C010F5F1F4F39
S1132E2026E046E065E7888166D18981DF91CF910C
S1132E301F910F91FF90EF900895E4DF91E08433A8
S1132E4009F090E0892F0895AB0166E0FC018081D0
S1132E508DC0AB0168E0FC01808188C0AB016AE0F1
S1132E60FC01808183C0AB0163E1FC0180817EC0F1
S1132E70AB0165E1FC01808179C0AB0167E1FC0134
S1132E80808174C0FF920F931F93CF93DF93C62F5B
S1132E90142FF22E032F682F84EC98E08BD26C2F22
S1132EA084EC98E032D2CF2DD02FCE01810F911D2A
S1132EB08C01C017D10729F0699184EC98E025D2E0
S1132EC0F8CF84EC98E092D291E0811190E0892FC0
S1132ED0DF91CF911F910F91FF900895CF93DF93CE
S1132EE01F92CDB7DEB749839E012F5F3F4F41E06C
S1132EF0C9DF0F90DF91CF910895CF92DF92FF92B7
S1132F000F931F93CF93DF93C62F042F6901682F6C
S1132F1084EC98E04FD26C2F84EC98E0F6D110E06A
S1132F20000F111FF12CCF2DD0E0C017D1077CF476
S1132F30CC0FDD1FCC0DDD1D698184EC98E0E5D15B
S1132F40688184EC98E0E1D1F394F394ECCF84ECC1
S1132F5098E04CD291E0811190E0892FDF91CF91DC
S1132F601F910F91FF90DF90CF900895CF93DF933F
S1132F701F921F92CDB7DEB75A8349839E012F5FFC
S1132F803F4F41E0BADF0F900F90DF91CF9108954A
S1132F903F924F925F926F927F928F929F92AF92E5
S1132FA0BF92CF92DF92EF92FF920F931F93CF9332
S1132FB0DF9300D000D0CDB7DEB7D82EC62E4D8318
S1132FC07901D1DC4B015C01312C1E829D81892F5A
S1132FD090E09C838B832801612C712CED813E163B
S1132FE090F56D2D84EC98E0E5D16C2D84EC98E09F
S1132FF08CD184EC98E0FAD16D2D84EC98E0DAD190
S11330004B815C81431951094132510514F040E26E
S113301050E06D2D84EC98E0CBD184EC98E01DD188
S1133020892B09F440C00115110559F19CDCDC0120
S1133030CB0188199909AA09BB0984159505A60528
S1133040B705F8F030C00115110599F18CDCDC01ED
S1133050CB0188199909AA09BB0920E030E080173F
S11330609107A207B30728F1FD812F2F30E04E818D
S1133070842F440F990B82179307DCF48FEF8E8310
S113308018C0F7012E81E20FF11D27FDFA95FA838E
S1133090E98384EC98E0E9D0E981FA818083FE81B8
S11330A0FF5FFE83BACF8D81813208F080E2380E53
S11330B095CF8E8126960FB6F894DEBF0FBECDBF96
S11330C0DF91CF911F910F91FF90EF90DF90CF9000
S11330D0BF90AF909F908F907F906F905F904F9034
S11330E03F9008950F931F9389019A0141E050DFA7
S11330F01F910F910895CF92DF92EF92FF920F9359
S11331001F93CF93DF931F92CDB7DEB7D42EC22E79
S11331109701AE014F5F5F4FE5DF8823F1F04D2D3E
S113312050E04C1951094F5F5F4F21E030E002C07D
S1133130220F331FCA94E2F721503109042E01C033
S1133140220F0A94EAF79981292330E002C03595C9
S113315027954A95E2F7F80120830F90DF91CF91EC
S11331601F910F91FF90EF90DF90CF900895EF9211
S1133170FF920F931F93CF93DF931F92CDB7DEB7C8
S1133180182F062FF42EE22E2091150230911602EC
S1133190AE014F5F5F4FA6DF898141E050E001C07F
S11331A0440FFA94EAF7EE2011F0482B02C0409540
S11331B048234983602F812F91DE0F90DF91CF91B7
S11331C01F910F91FF90EF900895DF92EF92FF927D
S11331D00F931F93CF93DF931F92CDB7DEB7182FB2
S11331E0F62EE42ED22E2091150230911602AE0155
S11331F04F5F5F4F77DF882331F12E2D30E02D199B
S113320031092F5F3F4F81E090E002C0880F991F82
S1133210DA94E2F70197022E01C0880F0A94EAF7C4
S1133220402F50E0BA0102C0660F771F2A95E2F7DB
S1133230482F4095998149238623482B49836F2D34
S1133240812F4CDE01C080E00F90DF91CF911F9160
S11332500F91FF90EF90DF9008958091F40890E033
S11332602091F508821B910908959091F5088091A9
S1133270F408981750F4E92FF0E0EA50F74F208152
S113328030E09F5F9093F50802C02FEF3FEFC90134
S11332900895E091F5088091F408E81730F4F0E01F
S11332A0EA50F74F808190E008958FEF9FEF0895E3
S11332B00895CF92DF92EF92FF920F931F93CF93D3
S11332C0DF937C01CB018A012091D008222389F06D
S11332D0EB016B01C40ED51ECC15DD0561F06991BF
S11332E0D701ED91FC910190F081E02DC701199572
S11332F0F3CF642F33D1C801DF91CF911F910F9188
S1133300FF90EF90DF90CF900895CF93DF931F92BB
S1133310CDB7DEB769832091D0082223D1F0209164
S1133320D108203240F021E030E0FC0133832283D5
S113333080E090E014C08091D208E82FF0E0ED52D4
S1133340F74F998190838F5F8093D2088093D1083F
S113335004C061E0CE01019601D181E090E00F90BC
S1133360DF91CF910895FC011382128288EE93E0DD
S1133370A0E0B0E084839583A683B7838FEA92E0CC
S11333809183808308951092F5081092F4081092A6
S1133390D2081092D10830C0862F413208F040E2A2
S11333A066EF78E045D01092F5088093F40808950C
S11333B021E0F2CF81E08093D0086093F30810926B
S11333C0D2081092D10808950F93062F21E040915E
S11333D0D10863ED78E08091F3086ED01092D208A2
S11333E01092D1081092D0080F91089561E0ECCFAB
S11333F084EC98E0B8CF08951092830981E080931B
S113340081091092800961E084E1F6DB61E085E1E5
S1133410F3DBE9EBF0E080818E7F808380818D7F18
S1133420808388E48093B80085E48093BC00089589
S1133430413208F03FC0909183099111FCCF91E093
S113344090938309209381092FEF209316091092FA
S11334505B09240F20935A09909382099091820961
S1133460880F892B8093820980918009813041F4EF
S113347010928009809182098093BB0085EC01C081
S113348085EE8093BC00809183098130E1F38091C3
S11334905B09841710F440915B09ACE5B9E0962F01
S11334A0FB018E2F891B841718F48D918193F9CF1A
S11334B0842F089580E008950F93413208F046C0A8
S11334C0909183099111FCCF32E0309383090093EA
S11334D081093FEF3093160910925B0940935A0912
S11334E0562FACE5B9E0FB013E2F351B341718F419
S11334F031913D93F9CF1092820930918209880F5E
S1133500832B8093820980918009813041F4109249
S11335108009809182098093BB0085EC01C085EE0F
S11335208093BC00222321F0809183098230D1F35F
S1133530809116098F3F79F080911609803241F00D
S113354080911609803331F094E005C091E003C006
S113355092E001C093E0892F0F910895613298F4AD
S113356020918309243089F460933809282FAAE331
S1133570B9E0FC018E2F821B861718F481918D937C
S1133580F9CF80E0089581E0089582E0089585ED03
S11335908093BC008091BC0084FDFCCF1092830911
S11335A0089585EC8093BC001092830908951F92BE
S11335B00F920FB60F9211240BB60F922F933F93D5
S11335C04F935F936F937F938F939F93AF93BF9327
S11335D0EF93FF938091B900887F803609F49CC0F3
S11335E068F5883209F45BC090F4803109F454C062
S11335F038F4882309F4F3C0883009F44DC0F2C0CC
S1133600883109F44CC0803209F45DC0EBC08034C9
S113361009F468C048F4803309F455C0883309F0CC
S1133620E1C080931609A7C0803509F44FC08835DE
S113363009F45DC0883409F0D5C0D3C0883909F4D1
S1133640C4C0A8F4883709F467C038F4883609F48C
S113365063C0803709F460C0C5C0883809F4B5C0B8
S1133660803909F45FC0803809F0BCC05BC0803B7E
S113367009F483C038F4803A09F466C0883A09F43E
S11336807CC0B0C0803C09F4A4C0883C09F4A1C04B
S1133690883B09F487C0A6C08091820910C090912C
S11336A05B0980915A09981770F5E0915B0981E0F4
S11336B08E0F80935B09F0E0E45AF64F808180938B
S11336C0BB0085EC83C0809316098BC0E0915B0935
S11336D081E08E0F80935B098091BB00F0E0E45A97
S11336E0F64F808390915B0980915A096BC0E091F9
S11336F05B0981E08E0F80935B098091BB00F0E051
S1133700E45AF64F80838091810981116AC081E077
S11337108093800984EA5EC083E0809383091092D9
S11337201709CFCF80911709803208F04EC0E0917D
S1133730170981E08E0F809317098091BB00F0E098
S1133740E85EF64F8083BDCF80911709803230F454
S1133750E0911709F0E0E85EF64F108218DF6091FF
S1133760170970E0E0917C09F0917D0988E199E006
S113377019951092170915DF35C084E080938309E9
S11337801092390910923809E0917E09F0917F096D
S1133790199580913809811105C081E08093380919
S11337A010923A09E091390981E08E0F809339092A
S11337B0F0E0E65CF64F80818093BB00909139097C
S11337C080913809981708F47CCF85E88093BC0071
S11337D009C085EC8093BC001092830903C0109249
S11337E01609D5DEFF91EF91BF91AF919F918F9113
S11337F07F916F915F914F913F912F910F900BBEED
S11338000F900FBE0F901F901895DB018F939F931D
S113381064D0BF91AF91A29F800D911DA39F900D85
S1133820B29F900D1124089597FB072E16F400946F
S113383006D077FD08D05BD007FC05D03EF4909508
S113384081959F4F0895709561957F4F0895A1E2EA
S11338501A2EAA1BBB1BFD010DC0AA1FBB1FEE1F06
S1133860FF1FA217B307E407F50720F0A21BB30B51
S1133870E40BF50B661F771F881F991F1A9469F7CD
S113388060957095809590959B01AC01BD01CF0129
S11338900895052E97FB16F400940FD057FD05D01C
S11338A0D6DF07FC02D046F408C050954095309509
S11338B021953F4F4F4F5F4F089590958095709598
S11338C061957F4F8F4F9F4F0895EE0FFF1F881F05
S11338D08BBF0790F691E02D19941DD0A59F900DF4
S11338E0B49F900DA49F800D911D11240895AA1BCF
S11338F0BB1B51E107C0AA1FBB1FA617B70710F0D7
S1133900A61BB70B881F991F5A95A9F78095909508
S1133910BC01CD010895A29FB001B39FC001A39F34
S1133920700D811D1124911DB29F700D811D1124F4
S10B3930911D0895F894FFCFE6
S1133938050009000C00030007000A00013C3E4092
S11339484143454748E8034D5055363035302063E8
S11339586F6E6E656374696F6E20737563636573E8
S11339687366756C0A004D50553630353020636FD8
S11339786E6E656374696F6E206661696C65640058
S1133988496E697469616C697A696E672049324362
S113399820646576696365732E2E2E0054657374EE
S11339A8696E672064657669636520636F6E6E650A
S11339B86374696F6E732E2E2E00436F6D7061737E
S11339C820646566696E69646F2100000000002444
S11339D81193129910B310A5106B11000000008503
S10F39E81959192D1935194919581900DD
S9030000FC
